:100000000C945D000C9485000C9485000C94850084
:100010000C9485000C9485000C9485000C9485004C
:100020000C9485000C9485000C9485000C9485003C
:100030000C9485000C9485000C9485000C9485002C
:100040000C9493060C9485000C9485000C94850008
:100050000C9485000C9485000C9485000C9485000C
:100060000C94DD060C9485000000000800020100DD
:100070000003040700000000000000000000000072
:10008000250028002B0000000000240027002A0083
:10009000040404040404040402020202020203032E
:1000A0000303030301020408102040800102040836
:1000B0001020010204081020FC0711241FBECFEFFE
:1000C000D8E0DEBFCDBF22E0A6E5B1E001C01D92C1
:1000D000A334B207E1F711E0A0E0B1E0E8E4F6E113
:1000E00002C005900D92A635B107D9F710E0CDE515
:1000F000D0E004C02197FE010E94F709CC35D1075A
:10010000C9F70E942A080C94220B0C94000090E07E
:10011000FC01EC55FF4F249180579F4FFC018491C7
:10012000882399F090E0880F991FFC01EA57FF4F50
:10013000A591B491FC01E458FF4F859194918FB73C
:10014000F894EC91E22BEC938FBF089590E0FC01C2
:10015000E859FF4F2491FC01EC55FF4F3491FC010D
:10016000E057FF4FE491EE23C9F0222339F023300A
:1001700001F1A8F4213019F1223029F1F0E0EE0F5D
:10018000FF1FE458FF4FA591B4918FB7F894EC91FD
:10019000611126C030953E233C938FBF08952730D0
:1001A000A9F02830C9F0243049F7809180008F7D74
:1001B00003C0809180008F7780938000DFCF84B56B
:1001C0008F7784BDDBCF84B58F7DFBCF8091B0006E
:1001D0008F778093B000D2CF8091B0008F7DF9CF20
:1001E0003E2BDACF3FB7F8948091A5019091A601FC
:1001F000A091A701B091A80126B5A89B05C02F3FEB
:1002000019F00196A11DB11D3FBFBA2FA92F982F3C
:100210008827BC01CD01620F711D811D911D42E037
:10022000660F771F881F991F4A95D1F70895089583
:100230000895AF92BF92CF92DF92EF92FF920F9309
:100240001F93CF93DF936C017B018B01040F151F6C
:10025000EB015E01AE18BF08C017D10759F06991D4
:10026000D601ED91FC910190F081E02DC601099538
:10027000892B79F7C501DF91CF911F910F91FF90E5
:10028000EF90DF90CF90BF90AF90089520917701CD
:10029000260F3327331F21323105ECF42091F10171
:1002A000FC0190E080E0243069F082E00895A091A4
:1002B00077012191AC01495A5E4FA40FB52FB11DB2
:1002C0002C930196861798F380917701680F6093BD
:1002D000770180E0089581E008951092F10181E0B6
:1002E0008093F0011092CB0161E082E10E94A600B0
:1002F00061E083E10E94A600E9EBF0E080818E7F5F
:10030000808380818D7F808388E48093B80085E43A
:100310008093BC000895CF93DF9391E090935601B2
:100320008823B9F0C091B800D091BA008091BC0088
:100330008A7B8093BC0060E082E10E94A60060E0BE
:1003400083E10E94A6000E946D01D093BA00C09381
:10035000B800DF91CF9108958F929F92AF92BF9294
:10036000CF92DF92EF92FF920F931F93CF93DF9381
:10037000D0911A02D13208F0D7C0182FC0911902BB
:100380000E94F2006B017C018091F10181116BC030
:1003900082E08093F1011093F0018FEF8093EF01E1
:1003A0001092EE01D093ED01A9EFB1E0EDECF1E098
:1003B00080E0D81391C01092CC018091CC01CC0F79
:1003C000C82BC093CC018091CB01813009F088C04B
:1003D0001092CB010E94F2006B017C018091CC0154
:1003E0008093BB008091F3019091F401A091F501FD
:1003F000B091F601892B8A2B8B2BA1F00E94F20081
:100400000091F3011091F4012091F5013091F60172
:100410006C197D098E099F090617170728073907E8
:1004200008F442C08091BC0083FDD8CF85EC809356
:10043000BC000E94F2006B017C018091F1018230CE
:1004400009F450C08091EF018F3F09F46FC0809193
:10045000EF01803209F46CC08091EF01803309F420
:1004600069C084E026C08091F3019091F401A091CD
:10047000F501B091F601892B8A2B8B2B09F484CFDF
:100480000E94F2008090F3019090F401A090F50199
:10049000B090F6016C197D098E099F0986169706A2
:1004A000A806B90608F070CF8091F2010E948B0176
:1004B00085E01092F80110921A021092F701DF9174
:1004C000CF911F910F91FF90EF90DF90CF90BF9051
:1004D000AF909F908F9008959D9191938F5F69CF7A
:1004E00085EEA5CF8091F3019091F401A091F501E3
:1004F000B091F601892B8A2B8B2B09F49ECF0E9499
:10050000F2000091F3011091F4012091F501309176
:10051000F6016C197D098E099F0906171707280730
:10052000390708F08ACFC0CF81E0C3CF80E0C1CFC8
:1005300082E0BFCF83E0BDCFCF93C42FDC01119603
:100540008D919C91DC01ED91FC910280F381E02D75
:1005500041E050E00995019729F48C2F0E94AC01ED
:1005600091E0811190E0892FCF910895CF93DF938F
:10057000EC018B818823A1F0888191E09093F701B1
:10058000809319021092F80110921A0281E00E94E1
:10059000AC0191E0811190E0892FDF91CF91089516
:1005A0001092AA011092A9011092F80110921A0259
:1005B0000E946D0187E191E090939D0180939C01E1
:1005C00088E191E090939B0180939A0181E08B8375
:1005D000CE010E94B602982F8111CECFDDCF0895B3
:1005E000E091AA018091A901E81730F4F0E0E55507
:1005F000FE4F808190E008958FEF9FEF08959091D6
:10060000AA018091A9012FEF3FEF981748F4E92F35
:10061000F0E0E555FE4F208130E09F5F9093AA0106
:10062000C90108958091A9019091AA01891B990B94
:100630000895CF92DF92EF92FF920F931F93CF9383
:10064000DF937C01CB018A012091F701222389F0FD
:10065000EB016B01C40ED51ECC15DD0569F0699167
:10066000D701ED91FC910190F081E02DC701099532
:10067000F3CF642F0E944601C801DF91CF911F91F3
:100680000F91FF90EF90DF90CF900895CF93DF937D
:100690001F92CDB7DEB769832091F7012223F9F0CD
:1006A00020911A02203258F021E030E0FC0133831F
:1006B000228390E080E00F90DF91CF9108958091A8
:1006C000F801E82FF0E0E750FE4F998190838F5FAB
:1006D0008093F80180931A0281E090E0ECCF61E012
:1006E000CE0101960E944601F7CF089590E080E088
:1006F00008958F929F92AF92BF920F931F93CF93C3
:10070000DF93CDB7DEB7A1970FB6F894DEBF0FBE6B
:10071000CDBF19A2423008F44AE08E010F5D1F4F91
:10072000842E912CB12CA12CA50194010E94D509F5
:10073000E62FB901CA01EA3044F5E05DD801EE9335
:100740008D01232B242B252B79F790E080E0109747
:1007500069F0FD0101900020E9F73197AF014A1BD4
:100760005B0BBD0187E292E00E941901A1960FB6D2
:10077000F894DEBF0FBECDBFDF91CF911F910F91D7
:10078000BF90AF909F908F900895E95CD7CFFC0108
:1007900001900020E9F73197AF01481B590BBC01CC
:1007A00087E292E00C9419012F923F924F925F9250
:1007B0006F927F928F929F92AF92BF92CF92DF9271
:1007C000EF92FF920F931F93CF93DF935C011B0176
:1007D0006A01F12CE12CD50114968D919C91860132
:1007E0000E191F098017910708F48C01F501D081BB
:1007F0000E94F2002B013C018091F101811172C035
:10080000C02F013208F0C0E2F1E0F093F10121E0E5
:10081000C601801B910BE816F90608F420E020932E
:10082000F0018FEF8093EF011092EE018C0F809317
:10083000ED01A1E0A093CC018091CC01DD0FD82B7C
:10084000D093CC018091CB01813009F090C01092FF
:10085000CB010E94F2002B013C018091CC018093DE
:10086000BB008091F3019091F401A091F501B0914A
:10087000F601892B8A2B8B2BA1F00E94F20020918C
:10088000F3013091F4014091F5015091F6016419A2
:10089000750986099709261737074807590708F485
:1008A00042C08091BC0083FDD8CFB5ECB093BC00B2
:1008B0000E94F2002B013C018091F101813009F48A
:1008C0005AC08091EE018C1710F4C091EE01ADEC8E
:1008D000B1E0EBEAF1E080E08C1751F19D9191934A
:1008E0008F5FFACF8091F3019091F401A091F5010F
:1008F000B091F601892B8A2B8B2B09F47DCF0E94B6
:10090000F2002091F3013091F4014091F5015091F2
:10091000F6016419750986099709261737074807EC
:10092000590708F069CF8091F2010E948B01C0E065
:100930001092AA01C093A901C017110609F057C06F
:1009400041018E0C9F1CE401CE0188199909801782
:10095000910798F5D50111968D919C91DC01ED914F
:10096000FC910284F385E02D09958993EDCFE5EEA6
:10097000E093BC009DCF8091F3019091F401A09190
:10098000F501B091F601892B8A2B8B2B09F494CFBA
:100990000E94F2002091F3013091F4014091F501A1
:1009A0005091F601641975098609970926173707CA
:1009B0004807590708F080CFB6CFE00EF11EEC14BF
:1009C000FD0408F408CF81E0DF91CF911F910F91D2
:1009D000FF90EF90DF90CF90BF90AF909F908F905F
:1009E0007F906F905F904F903F902F90089580E0A0
:1009F000EBCF682F70E090E080E04AE00C94790340
:100A0000CF93DF93EC0160E08E810E94A60061E04D
:100A10008E810E94A60060E08E810E94A6008BE875
:100A200091E00197F1F7DF91CF910895CF92DF9296
:100A3000EF92FF920F931F93CF93DF936C017C0192
:100A400087E0E80EF11CD0E0C0E0062F10E0B8010E
:100A50000C2E02C0759567950A94E2F76170F70154
:100A600081917F010E94A6002196C430D10579F7BB
:100A7000C601DF91CF911F910F91FF90EF90DF9012
:100A8000CF900C940005CF92DF92EF92FF920F93DC
:100A90001F93CF93DF93EC01F62E642F8C810E947D
:100AA000A6008D818F3F19F060E00E94A6000F2DF7
:100AB00010E08F8584FF25C06E0187E0C80ED11C31
:100AC000F12CE12CB8010E2C02C0759567950A94A3
:100AD000E2F76170F60181916F010E94A600FFEFBD
:100AE000EF1AFF0A88E0E816F10461F7CE01DF9102
:100AF000CF911F910F91FF90EF90DF90CF900C94CA
:100B00000005B80184E0759567958A95E1F7CE01F7
:100B10000E9416056F2DCE01DF91CF911F910F918D
:100B2000FF90EF90DF90CF900C94160540E0682F77
:100B300087E292E00C944305CF93DF93823029F44F
:100B40009091360298609093360280933A02109208
:100B50003B0280E480933C0280E180933D0280E58B
:100B600080933E0280912B020E94870080912C028C
:100B70008F3F11F00E94870080912D020E94870014
:100B8000C7E2D2E09E01275232408091360284FDB6
:100B90000AC084E090E02196281739073CF48E8142
:100BA0000E948700EFCF88E090E0F5CF8BE39DE0D7
:100BB0000197F1F760E080912B020E94A60060E0AF
:100BC00080912D020E94A60080912C028F3F19F087
:100BD00060E00E94A6008091360284FD39C063E087
:100BE00087E292E00E941605CBE4D6E4CE0101979D
:100BF000F1F763E087E292E00E9416052197F1F792
:100C000063E087E292E00E94160583E592E0019797
:100C1000F1F762E087E292E00E94160580913602C9
:100C200080620E94960584E0809337028CE00E94E7
:100C3000960581E00E9496058BE39FE10197F1F70D
:100C400082E08093380286E0DF91CF910C94960584
:100C500080620E9496058BE496E40197F1F78091FB
:100C6000360280620E94960583E592E00197F1F7D3
:100C70008091360280620E949605D0CF90913A0210
:100C8000891710F08FEF890FE82FF0E0E95DFD4F35
:100C9000848980680C94960541E00E94430581E0B8
:100CA00090E0089541E0682F87E292E00E944305BA
:100CB00081E090E0089585ED8093BC008091F30180
:100CC0009091F401A091F501B091F6010796A11D54
:100CD000B11D23E0B695A795979587952A95D1F7ED
:100CE0002091BC0024FD03C01092F10108954091B1
:100CF000F3015091F4016091F5017091F601452BDB
:100D0000462B472B69F30097A105B10541F02AE274
:100D10002A95F1F700C00197A109B109E1CF8091AF
:100D2000F2010C948B011F920F920FB60F921124B7
:100D30002F933F938F939F93AF93BF938091A10184
:100D40009091A201A091A301B091A4013091A001C2
:100D500023E0230F2D3758F50196A11DB11D2093D7
:100D6000A0018093A1019093A201A093A301B0934D
:100D7000A4018091A5019091A601A091A701B09135
:100D8000A8010196A11DB11D8093A5019093A60114
:100D9000A093A701B093A801BF91AF919F918F91AC
:100DA0003F912F910F900FBE0F901F90189526E83E
:100DB000230F0296A11DB11DD2CF1F920F920FB625
:100DC0000F9211242F933F934F935F936F937F93D1
:100DD0008F939F93AF93BF93EF93FF938091B9004D
:100DE000887F803609F44AC0F0F5883209F4A7C03C
:100DF00018F5803109F49BC0B8F4882309F4F9C0D0
:100E0000883009F494C0FF91EF91BF91AF919F9109
:100E10008F917F916F915F914F913F912F910F90A3
:100E20000FBE0F901F901895883109F488C080324A
:100E300051F78093EF0114C0803409F49DC040F451
:100E40008033B9F38833F9F68093EF0185ECB0C0B5
:100E5000803509F485C0883509F496C0883499F640
:100E60000E945B06D0CF883909F48CC038F58837EA
:100E700029F050F4883611F0803729F683E080930A
:100E8000F1011092990157C0883809F47BC080396C
:100E900019F0803809F0B7CF80919901803208F0BD
:100EA00071C0E091990181E08E0F8093990180914A
:100EB000BB00F0E0E758FE4F80833DC0803B39F037
:100EC000E0F4803A09F479C0883A09F09CCF84E0D4
:100ED0008093F1011092780110927701E0919C01CA
:100EE000F0919D0109958091770181110FC081E0FA
:100EF000809377011092570109C0803C09F4A6CF76
:100F0000883C09F4A3CF883B09F07DCFE0917801BC
:100F100081E08E0F80937801F0E0E95AFE4F8081E6
:100F20008093BB00909178018091770129C08091D6
:100F3000CC018093BB0085EC8093BC0064CF909182
:100F4000EE018091ED01981758F5E091EE0181E0F6
:100F50008E0F8093EE01F0E0E353FE4F8081E9CFE6
:100F6000E091EE0181E08E0F8093EE018091BB0055
:100F7000F0E0E353FE4F80839091EE018091ED010C
:100F80009817C8F285E8D8CFE091EE0181E08E0F86
:100F90008093EE018091BB00F0E0E353FE4F80832D
:100FA0008091F00181115CCF81E08093CB0184EAD4
:100FB0008093BC001092F10126CF85EC8093BC0099
:100FC0001092F10180919901803230F4E091990101
:100FD000F0E0E758FE4F10826091990170E0E091D7
:100FE0009A01F0919B0189E791E00995109299018E
:100FF0000ACF1092EF0134CFEBE1F2E013821282BC
:1010000088EE93E0A0E0B0E084839583A683B78365
:101010008AE091E091838083E7E2F2E0138212821A
:101020008CE191E0918380838DE084838FEF8583D1
:101030008CE086838BE087838AE0808789E08187E4
:1010400088E082871386148615861686178681E0C7
:101050000C949C05CF93DF93CDB7DEB728970FB6DE
:10106000F894DEBF0FBECDBF789484B5826084BD96
:1010700084B5816084BD85B5826085BD85B581609C
:1010800085BD80916E00816080936E00109281001A
:1010900080918100826080938100809181008160D5
:1010A0008093810080918000816080938000809196
:1010B000B10084608093B1008091B0008160809322
:1010C000B00080917A00846080937A0080917A00E9
:1010D000826080937A0080917A00816080937A00A8
:1010E00080917A00806880937A001092C10082E03B
:1010F0000E949C0584E291E00E94C70380919E01BA
:1011000090919F01009711F00E94990A86E090E06B
:101110000E94FD098C0188E6F80180838BE192E052
:1011200092838183138280E290E09583848310937D
:101130009F0100939E011092AA011092A9011092A2
:10114000F80110921A020E946D0187E191E09093DC
:101150009D0180939C0188E191E090939B01809395
:101160009A01FF24F394F801F382C8010E94B602A9
:10117000811108C081E00E943E0688E391E00E9450
:10118000C703FFCF188680919E0190919F01FC01BB
:1011900024813581232B79F02081F092F70120936F
:1011A00019021092F80110921A0241E0BE01685F24
:1011B0007F4F0E949C0241E050E0BE016F5F7F4F75
:1011C00080919E0190919F010E94D403898190E0BB
:1011D000880F892F881F990B892B41F081E00E948D
:1011E0003E0683E491E00E94C703FFCF81E00E94A6
:1011F00096058BE39FE10197F1F700E010E0CC2426
:10120000C3941982E0909E01F0909F01F7018481C0
:101210009581892BD1F08081C092F70180931902CA
:101220001092F80110921A0240E0BE016F5F7F4FEA
:10123000C7010E949C02882341F047E050E0BE01B4
:101240006F5F7F4FC7010E94D40329812F77822FC0
:1012500090E034E0959587953A95E1F7982F990FAE
:10126000990FF82EF91AFF0CF20E2A81822F90E0C6
:1012700044E0959587954A95E1F7982F990F990F36
:10128000E82EE91AEE0CE20E2B81822F90E054E05A
:10129000959587955A95E1F7982F990F990FD82E24
:1012A000D91ADD0CD20E8D81282F30E064E03595FF
:1012B00027956A95E1F7922F990F990FA22EA91AF7
:1012C000AA0CA80E8E81282F30E074E03595279562
:1012D0007A95E1F7922F990F990FB22EB91ABB0C9C
:1012E000B80E9F8080E00E943E068A2D0E94F9047D
:1012F0008FE20E9452068B2D0E94F9048FE20E9419
:101300005206892D90E0E4E095958795EA95E1F7FE
:10131000982F990F990F682F691B660F690D70E060
:101320006053784F90E080E04AE00E94790381E0CA
:101330000E943E068D2D0E94F9048AE30E94520607
:101340008E2D0E94F9048AE30E9452068F2D0E947E
:10135000F9040E94F2002B013C01F8EE8F2EF3E01D
:101360009F2EA12CB12C0E94F200641975098609E8
:101370009709683E734081059105A8F3F1E08F1A43
:101380009108A108B10828EE420E23E0521E611C0C
:10139000711C81149104A104B10429F701151105F0
:1013A00009F42FCF0E9400002CCFA1E21A2EAA1B15
:1013B000BB1BFD010DC0AA1FBB1FEE1FFF1FA21705
:1013C000B307E407F50720F0A21BB30BE40BF50B02
:1013D000661F771F881F991F1A9469F7609570958B
:1013E000809590959B01AC01BD01CF010895EE0F52
:1013F000FF1F0590F491E02D09940F931F93CF9355
:10140000DF938230910510F482E090E0E091410298
:10141000F091420230E020E0B0E0A0E0309799F493
:101420002115310509F44AC0281B390B2430310538
:10143000D8F58A819B816115710589F1FB01938340
:101440008283FE0111C040815181028113814817BE
:101450005907E0F04817590799F4109761F0129670
:101460000C93129713961C933296CF01DF91CF9174
:101470001F910F9108950093410210934202F4CFFF
:101480002115310551F04217530738F0A901DB014E
:101490009A01BD01DF01F801C1CFEF01F9CF9093AF
:1014A000420280934102CDCFFE01E20FF31F8193F0
:1014B00091932250310939832883D7CF20913F025D
:1014C00030914002232B41F420910201309103011D
:1014D0003093400220933F0220910001309101019E
:1014E0002115310541F42DB73EB7409104015091CB
:1014F0000501241B350BE0913F02F0914002E217F9
:10150000F307A0F42E1B3F0B2817390778F0AC0126
:101510004E5F5F4F2417350748F04E0F5F1F509303
:10152000400240933F02819391939FCFF0E0E0E02F
:101530009CCFCF93DF930097E9F0FC0132971382A1
:101540001282A0914102B0914202ED0130E020E010
:101550001097A1F420813181820F931F20913F02C7
:10156000309140022817390709F061C0F09340021A
:10157000E0933F02DF91CF910895EA01CE17DF0794
:10158000E8F54A815B819E0141155105B1F7E901FA
:10159000FB83EA8349915991C40FD51FEC17FD07CE
:1015A00061F4808191810296840F951FE9019983EE
:1015B0008883828193819B838A83F0E0E0E01296A6
:1015C0008D919C9113970097B9F52D913C911197AE
:1015D000CD010296820F931F20913F02309140026D
:1015E0002817390739F6309751F5109242021092B8
:1015F0004102B0934002A0933F02BCCFD383C28389
:1016000040815181840F951FC817D90761F44E5F3F
:101610005F4F88819981480F591F518340838A8188
:101620009B81938382832115310509F0B0CFF0931C
:101630004202E09341029ECFFD01DC01C0CF138244
:081640001282D7CFF894FFCF0E
:1016480000004302800000000000460319037603EF
:10165800EF021203FF02F002000000004C0619011D
:1016680076037503496E697469616C697A696E6796
:10167800205254432E2E2E00525443206661696C2A
:10168800656400525443206973204E4F542072758C
:061698006E6E696E670032
:00000001FF
